:020000040800F2
:10000000C004002001010008030F0008750E00085D
:10001000010F0008A1010008C11200080000000043
:10002000000000000000000000000000270F000892
:10003000A301000800000000250F0008290F000898
:100040001B0100081B0100081B0100081B01000820
:100050001B0100081B0100081B010008A501000886
:100060001B0100081B0100081B0100081B01000800
:100070001B0100081B0100081B0100081B010008F0
:100080001B0100081B0100081B0100081B010008E0
:100090001B0100081B0100081B0100081B010008D0
:1000A0001B0100081B0100081B0100081B010008C0
:1000B0001B0100081B0100081B0100081B010008B0
:1000C0001B0100081B0100081B0100081B010008A0
:1000D0001B010008B51200081B0100081B010008E5
:1000E0001B0100081B0100081B010008DFF80CD0F1
:1000F00000F044F8004800472D130008C004002019
:100100000648804706480047FEE7FEE7FEE7FEE7B1
:10011000FEE7FEE7FEE7FEE7FEE7FEE7710F0008F9
:10012000ED00000840EA01039B0703D009E008C97D
:10013000121F08C0042AFAD203E011F8013B00F8AC
:10014000013B521EF9D27047D2B201E000F8012BF8
:10015000491EFBD270470022F6E710B513460A4647
:1001600004461946FFF7F0FF204610BD421C10F868
:10017000011B0029FBD1801A70470000064C074D77
:1001800006E0E06840F0010394E807009847103467
:10019000AC42F6D3FFF7AEFF80140008A0140008AD
:1001A000FEE77047022000F095B8000010B590F807
:1001B00021100024022903D00421816301243DE0A1
:1001C00001680A6822F00E020A6001680A6822F0DB
:1001D00001020A601A4A0168914201D1012121E01D
:1001E000174A1432914201D110211BE0144A2832DF
:1001F000914201D1891515E0114A3C32914201D159
:1002000089140FE00E4A5032914202D14FF48031EE
:1002100008E00B4A6432914202D14FF4801101E0B0
:100220004FF08071064A083A5160012180F8211090
:10023000002180F82010416B01B18847204610BD95
:100240000800024070B5044600F03CF90546601C09
:1002500002D004480078044400F034F9401BA04266
:10026000FAD370BD040000200EB5022821D164200D
:10027000FFF7E8FF02210F4800F016F9002818D117
:100280004FF400510C4800F014F90CA207CA8DE895
:1002900007006846FFF76AFF82B24FF47A73694637
:1002A000094800F089FD3220FFF7CCFF07A001F0DC
:1002B00009F80EBD00080140001001404275747439
:1002C0006F6E2D6F6E0A000018000020313233343B
:1002D000350A0000044910B50A68024202D00860DD
:1002E000FFF7C2FF10BD0000140401402DE9F84FD4
:1002F000DFF890A100220AF1040B144601274FF009
:100300000F090BF1040E00BF0B6807FA04F52B4030
:10031000AB4274D1DFF870C14E68A6EB0C0866459D
:100320002BD00DDC032E34D005DC36B3012E19D0D2
:10033000022E2FD11BE0112E16D0122E2AD119E039
:10034000B8F5881F19D006DCB8F5803F15D0B8F590
:10035000801F1FD111E0B8F5001F0ED0B8F5041FA3
:1003600018D10AE0CA6815E0CA68121D12E0CA680E
:1003700008320FE0CA680C320CE08A682AB1012A00
:100380004FF0080203D0456104E0042202E0056159
:1003900000E00022FF2B01D8064601E000F1040630
:1003A0004FEA840501D9A5F12005D6F800C009FA65
:1003B00005F82CEA080C02FA05F54CEA050CC6F81B
:1003C00000C04D68ED0057D5304DAE6946F00106CE
:1003D000AE61AD6924F0030605F0010500952C4DD2
:1003E00006EB050CDCF80850A6074FEA167809FA68
:1003F00008F6B543274EB04202D1002610E03BE09C
:10040000254EB04201D101260AE0244EB04201D16E
:10041000022605E0224EB04201D1032600E0042668
:1004200006FA08F62E43CCF808604D68DAF800604A
:10043000ED03554601D51E4300E09E432E604D68F6
:10044000DBF80060AD035D4601D51E4300E09E432E
:100450002E604D68DEF80060ED02754601D51E4342
:1004600000E09E432E604D68AD020E4D2E6801D512
:100470001E4300E09E432E60641C102CFFF444AF2A
:10048000BDE8F88F00040140000011100010024088
:100490000000014000080140000C01400010014034
:1004A000001401400C0401408068084000D0012085
:1004B0007047C2684A40C26070470AB10161704724
:1004C0000904FBE701488068704700000400002031
:1004D000024881680278114481607047040000205E
:1004E000074810B5016841F010010160032000F0D9
:1004F00077F8002000F006F800F024F8002010BD86
:100500000020024070B50D4D04464FF47A712878F2
:10051000B1FBF0F00A490968B1FBF0F000F000FB14
:1005200048B9102C07D200222146501E00F038F89E
:1005300000206C6070BD012070BD00000400002030
:10054000100000200E4808B5816941F00101816169
:10055000816901F001010091C16941F08051C161DF
:10056000C06900F080500090052000F039F805487F
:10057000416821F0E06141F00071416008BD000078
:10058000001002400000014000F01F0201219140D4
:100590004009800000F1E020C0F800117047000021
:1005A000F0B40E4B1B680C46C3F30223C3F10705DE
:1005B000042D00D90425191D072901D2002300E0CC
:1005C000DB1E012606FA05F1491E214099409E4096
:1005D000761E16403143F0BC00F094BC0CED00E0F8
:1005E000064900F0070208684FF6FF03184040EA8A
:1005F0000220034A10430860704700000CED00E041
:100600000000FA052DE9F047DFF8548105460E4653
:10061000D8F8000000F00700B0420CD2D8F8001063
:1006200021F007013143C8F80010D8F8000000F0AD
:100630000700B0426FD128684A4C810712D54007A5
:1006400003D5606840F4E06060602878000703D557
:10065000606840F4605060606068A96820F0F00055
:10066000084360602878C00744D06868012816D025
:100670002168022816D0890700294CDA616821F028
:10068000030101436160FFF71DFF6968074641F2FE
:10069000883001290ED00229814618D026E0216831
:1006A0008903E9E78901E7E7FFF70CFFC11B49452B
:1006B00001D918E081466068C0F381000128F3D1B8
:1006C00018E000BFFFF7FEFEC11B49450BD860686C
:1006D000C0F381000228F5D10CE000BFFFF7F2FE65
:1006E000C11B494502D90320BDE8F087606810F0BE
:1006F0000C0FF3D1D8F80010404601F00701B142C9
:100700000BD9016821F0070131430160006800F056
:100710000700B04201D00120E6E72878400705D560
:100720006068E96820F4E0600843606028780007AA
:1007300006D56068296920F4605040EAC100606015
:1007400000F036F86168084AC1F30311515CC840F3
:10075000064908600020FFF7D5FE0020C4E700002E
:100760000020024000100240681400081000002021
:100770000448054900684968044AC1F30221515CF4
:10078000C840704710000020001002407814000894
:100790000448054900684968044AC1F3C221515C14
:1007A000C840704710000020001002407814000874
:1007B00012A185B00FC98DE80F0014A0144A00687B
:1007C00004905168134801F00C03042B10D0082B3F
:1007D0000ED1C1F38343C9031DF803000AD5516844
:1007E00004AAC1F34041515C0A4A5043B0FBF1F006
:1007F00005B0704708494843FAE7000002030405C2
:10080000060708090A0B0C0D0E0F1010010200005C
:100810000010024000127A0000093D002DE9F84F57
:1008200004460078B94DC00748D06868C0F381001D
:10083000012807D06868C0F38100022809D16868E0
:10084000C00306D52868800338D5606800286FD0BB
:1008500034E06068B0F5803F0BD010B1B0F5A02F48
:1008600011D0286820F480302860286820F4802087
:1008700002E0286840F480302860606888B1FFF7A3
:1008800021FE064609E0286840F480202860F0E751
:10089000FFF718FE801B642875D828688003F7D5F9
:1008A0000CE0FFF70FFE064605E000BFFFF70AFE6B
:1008B000801B6428F0D828688003F7D42078944EF1
:1008C00080074FF001094FF000083BD5686810F031
:1008D0000C0F07D06868C0F38100022809D168684E
:1008E000C00306D42868800714D5206901281FD1C9
:1008F00010E02069B0B1C6F80090FFF7E3FD0746AD
:1009000005E000BFFFF7DEFDC01B0228C4D8286841
:100910008007F7D52868616920F0F80040EAC10037
:1009200028600FE0C6F80080FFF7CCFD074606E020
:10093000E9E000BFFFF7C6FDC01B022823D82868E6
:100940008007F7D4207800072CD57248A169D9B167
:10095000C0F80090FFF7B6FD074604E0FFF7B2FDD0
:10096000C01B02280FD8686A8007F7D56A484FF481
:10097000FA510068B0FBF1F0009000BF0098411EF2
:100980000091FAD20EE080E0C0F80080FFF79AFDF7
:10099000074604E0FFF796FDC01B022875D8686A79
:1009A0008007F7D42078400760D5E8690027C000A9
:1009B00008D4E86940F08050E861E869012700F058
:1009C0008050009055480168C90513D401688346DA
:1009D00041F480710160FFF775FD824606E000BFBB
:1009E000FFF770FDA0EB0A0064284ED8DBF800008A
:1009F000C005F5D5E06801280AD008B1052813D054
:100A0000286A20F001002862286A20F0040002E031
:100A1000286A40F001002862E06841F2883B98B102
:100A2000FFF750FD82460BE0286A40F00400286280
:100A3000EEE700BFFFF746FDA0EB0A0159455AD883
:100A4000286A8007F6D50CE0FFF73CFD824605E0FA
:100A5000FFF738FDA0EB0A0159454CD8286A8007FA
:100A6000F6D41FB1E86920F08050E861E06988B3EE
:100A70006968C1F38101022945D00228C6F8608067
:100A800004D0FFF71FFD044638E034E0FFF71AFDFD
:100A9000074604E0FFF716FDC01B02282BD8286884
:100AA0008001F7D4206AB0F5803F05D16868A1685D
:100AB00020F4003008436860D4E9080108436968FD
:100AC00021F4741108436860C6F86090FFF7FAFCDF
:100AD000044606E015E000BFFFF7F4FC001B022807
:100AE00009D828688001F7D50BE000BFFFF7EAFCC2
:100AF000001B022802D90320BDE8F88F2868800176
:100B0000F4D40020F8E70120F6E7000000100240CE
:100B10000000424280044242100000200070004069
:100B200010B5401EB0F1807F01D3012010BD4FF001
:100B3000E02460610F21601700F0E4F90020A0615B
:100B400007202061002010BD7047000070B50268CA
:100B500004461068D168536910F00F0F51D003F0AC
:100B6000010501F4907635435DD0C20705D0CA0572
:100B700003D5E26B42F00102E263420705D5DA07D2
:100B800003D0E26B42F00202E263820705D5DA0786
:100B900003D0E26B42F00402E263020705D5DA07F4
:100BA00003D0E26B42F00802E263E26B002A34D029
:100BB000800604D5880602D5204600F013FA206886
:100BC0004069E16BC0F3801001F008010143204649
:100BD00024D000F0F9F92068416949061AD5416925
:100BE00021F040014161606BA0B11B494163606B22
:100BF000FFF7DCFA002810D0606B416BBDE8704055
:100C0000084783060FD58B060DD52046BDE87040FA
:100C100000F0E8B92046FFF797FF70BDFFF794FF9B
:100C20000020E06370BD030606D50B0604D5204600
:100C3000BDE8704000F0DABA4006F3D54806F1D5B9
:100C4000D168204621F04001D160202184F839107C
:100C500000F00FF970BD0000B90F000870B5040076
:100C600004D094F83900002510B106E0012070BDD1
:100C700084F83850204600F023F8242084F8390006
:100C80002068C16821F40051C160204600F0F6F9E7
:100C90002068016921F4904101612068416921F0D7
:100CA0002A0141612068C16841F40051C160E563D7
:100CB000202084F8390084F83A00002070BD00003C
:100CC00030B585B000240094019402940394006828
:100CD000184988422CD11848816941F480418161CA
:100CE000816901F480410491816941F004018161CD
:100CF0008069124D00F0040004904FF400700090E1
:100D0000022001900320039069462846FFF7EEFA7F
:100D10002815CDE90004694628460294FFF7E6FA53
:100D2000002211462520FFF73BFC2520FFF72CFC75
:100D300005B030BD003801400010024000080140FD
:100D400090F83A30202B22D1F9B1F2B190F8383036
:100D5000012B1CD081628285C2850021C1632222C1
:100D600080F83A2080F838100168CA6842F480722E
:100D7000CA6001684A6942F001024A610068C168BC
:100D800041F02001C160002070470120704702201F
:100D90007047000010B5002301220549054800F006
:100DA0000BF8BDE81040012201490248FFF7C8BF17
:100DB00000000020180000202DE9F843044690F8B8
:100DC00039001F4616460D46202850D1A5B19EB1C8
:100DD00094F8380001284AD0012084F838004FF0F8
:100DE0000008C4F83C80212084F83900FFF76AFB32
:100DF000A6848146E68426E00120BDE8F883E08CE5
:100E0000401EE084A0684B46B0F5805F4FF00002C2
:100E10004FF080012046009703D000F018FAE8B99F
:100E20000DE000F014FAC8B928882168C0F3080062
:100E30004860206908B16D1C05E0AD1C03E0216825
:100E400015F8010B4860E08C0028D8D14B460022F1
:100E500040212046009700F0FAF908B10320CCE7C2
:100E6000202084F8390084F838800020C5E702206B
:100E7000C3E77047FEE7000070B586B000241C4849
:100E80000094019402940394816941F010018161FE
:100E9000816901F010010491816941F004018161CF
:100EA0008069144E00F004004FF4005504900022B5
:100EB00029463046FFF701FB00950125CDE9015495
:100EC0000224694630460394FFF710FA0A4869463F
:100ED000CDE9004002950948FFF708FA01221146C2
:100EE0000720FFF75DFB0720FFF74EFB06B070BD44
:100EF00000100240001001400000211000080140D5
:100F0000FEE770470907090E002806DA00F00F0017
:100F100000F1E02080F8141D704700F1E02080F817
:100F20000014704770477047FFF7D2BA10B590B001
:100F300028216846FFF70FF914210AA8FFF70BF9DB
:100F400002200090012004901020002405900794B6
:100F50006846FFF763FC0F20CDE90A040C940D945A
:100F600000210AA80E94FFF74DFB10B010BD000041
:100F70000D48016841F00101016041680B4A1140D0
:100F8000416001680A4A11400160016821F4802132
:100F90000160416821F4FE0141604FF41F0181604E
:100FA0000449C00308607047001002400000FFF8C9
:100FB000FFFFF6FE08ED00E010B5406A0021C18594
:100FC000C184FFF7C1FD10BD0168CA6822F49072A8
:100FD000CA6001684A6922F001024A61202180F852
:100FE0003A10704710B590F83A10222901D002202B
:100FF00010BD8168B1F5805F11D0016900290168D9
:101000001FD0496801F07F03816A4A1C82620B701D
:10101000C18D491E0904090CC18518D02BE0026955
:10102000816A002A0268526805D0D2B20A80816AB9
:10103000491C8162ECE7C2F308020A80816A891CBC
:10104000F7E74A68816A4B1C83620A70E0E701682F
:10105000CA6822F02002CA600168CA6822F480725D
:10106000CA6001684A6922F001024A61202180F8C1
:101070003A10FFF78FFE002010BD00002DE9F0416F
:10108000044600680169E26821F44051114301619E
:101090002169A0680843616908432168CA6841F270
:1010A0000C639A430243CA6020684169A26921F433
:1010B0004071114341614C492068642532268842C1
:1010C0003CD1FFF765FB00EBC00101EB001061684C
:1010D0008900B0FBF1F7FFF75BFB00EBC00101EB10
:1010E00000106168B0468900B0FBF1F0B0FBF5F08C
:1010F0006FF01801484307EB800106EB0110B0FBCD
:10110000F5F000F0F006FFF743FB00EBC00101EB48
:10111000001061688900B0FBF1F0B0FBF5F006EB60
:101120000016FFF735FB00EBC00101EB0010616812
:101130008900B0FBF1F7FFF72BFB3BE0FFF718FB53
:1011400000EBC00101EB001061688900B0FBF1F712
:10115000FFF70EFB00EBC00101EB00106168B04629
:101160008900B0FBF1F0B0FBF5F06FF018014843D7
:1011700007EB800106EB0110B0FBF5F000F0F00684
:10118000FFF7F6FA00EBC00101EB0010616889007F
:10119000B0FBF1F0B0FBF5F006EB0016FFF7E8FA54
:1011A00000EBC00101EB001061688900B0FBF1F7B2
:1011B000FFF7DEFA00EBC00101EB00106168890067
:1011C000B0FBF1F0B0FBF5F06FF01801484307EB0E
:1011D000800108EB0110B0FBF5F0216800F00F0072
:1011E00030448860BDE8F0810038014090F8391043
:1011F000212901D0022070478168B1F5805F016A22
:101200000BD04A1C0262026809785160C18C491EE9
:101210000904090CC1840ED017E009880268C1F3E3
:101220000801516001690029016A02D0491C01626C
:10123000ECE7891CFBE70168CA6822F08002CA60FB
:101240000068C16841F04001C160002070472DE98D
:10125000F041984617460E460446069D1DE0681C60
:101260001BD02DB1FFF72EF9A0EB0800A84214D92E
:101270002068C16821F4D071C1602068416921F003
:1012800001014161202084F8390084F83A000020EF
:1012900084F838000320BDE8F0812068006836EA51
:1012A000000004D00020B842D9D00020F3E701208C
:1012B000F9E700000148FFF749BC000018000020D2
:1012C000FEE70000014A024900F013B815130008B8
:1012D0001400002002E008C8121F08C1002AFAD139
:1012E00070477047002001E001C1121F002AFBD1A6
:1012F00070472DE9F04116460F460446002503E0ED
:101300003946B047641C6D1C20780028F8D1284667
:10131000BDE8F08113B50F23012269460248FFF7AB
:101320004BFD00981CBD000018000020FFF7D8F806
:10133000FFF7FCFDFFF7A0FD294828490C220160BA
:101340004FF4E131416000218160C160C0E90412C5
:101350008161C161FFF782FC214864214030FEF7C2
:10136000FAFE20A42046FEF701FF02461C48214653
:101370004030FEF7D7FE2046FEF7F8FE184982B24D
:101380004FF47A752B4640311548FFF715FD144888
:1013900064214030FEF7DFFE1DA42046FEF7E6FE86
:1013A00002460F4821464030FEF7BCFE2046FEF7BD
:1013B000DDFE0B4982B22B4640310948FFF7FCFCA9
:1013C000074864214030FEF7C6FE1AA0FFF77AFFF7
:1013D000012224490248FFF7B3FCFEE70038014030
:1013E0001800002048414C5F554152545F547261CF
:1013F0006E736D69743AC4E3BFC9D2D4BFAACABCC4
:10140000B7A2CBCDCAFDBEDDC1CB0A0000000000F3
:1014100048414C5F554152545F5472616E736D691F
:10142000743AB5A5C6ACBBFABBE1BBD8CFD40A00B1
:10143000000000007072696E74663ACAB9D3C37056
:1014400072696E7466D6D8B6A8CFF220B6F8B2BB71
:10145000CAC775617472BAAFCAFDB7A2CBCDC1CB92
:101460000A00000000000020000000000000000052
:10147000010203040607080900000000010203043A
:10148000A01400080000002018000000D41200087A
:10149000B814000818000020A8040000E412000896
:1014A000000000000100000010000000000000002B
:0814B00000A24A040000000044
:04000005080000ED02
:00000001FF
